{"abi":[{"type":"constructor","inputs":[{"name":"_tokenA","type":"address","internalType":"address"},{"name":"_tokenB","type":"address","internalType":"address"}],"stateMutability":"nonpayable"},{"type":"function","name":"FEE_PERCENT","inputs":[],"outputs":[{"name":"","type":"uint256","internalType":"uint256"}],"stateMutability":"view"},{"type":"function","name":"addLiquidity","inputs":[{"name":"amountA","type":"uint256","internalType":"uint256"},{"name":"amountB","type":"uint256","internalType":"uint256"}],"outputs":[],"stateMutability":"nonpayable"},{"type":"function","name":"allowance","inputs":[{"name":"owner","type":"address","internalType":"address"},{"name":"spender","type":"address","internalType":"address"}],"outputs":[{"name":"","type":"uint256","internalType":"uint256"}],"stateMutability":"view"},{"type":"function","name":"approve","inputs":[{"name":"spender","type":"address","internalType":"address"},{"name":"value","type":"uint256","internalType":"uint256"}],"outputs":[{"name":"","type":"bool","internalType":"bool"}],"stateMutability":"nonpayable"},{"type":"function","name":"balanceOf","inputs":[{"name":"account","type":"address","internalType":"address"}],"outputs":[{"name":"","type":"uint256","internalType":"uint256"}],"stateMutability":"view"},{"type":"function","name":"claimYield","inputs":[],"outputs":[],"stateMutability":"nonpayable"},{"type":"function","name":"decimals","inputs":[],"outputs":[{"name":"","type":"uint8","internalType":"uint8"}],"stateMutability":"view"},{"type":"function","name":"getAmountOut","inputs":[{"name":"amountIn","type":"uint256","internalType":"uint256"},{"name":"reserveIn","type":"uint256","internalType":"uint256"},{"name":"reserveOut","type":"uint256","internalType":"uint256"}],"outputs":[{"name":"","type":"uint256","internalType":"uint256"}],"stateMutability":"pure"},{"type":"function","name":"name","inputs":[],"outputs":[{"name":"","type":"string","internalType":"string"}],"stateMutability":"view"},{"type":"function","name":"owner","inputs":[],"outputs":[{"name":"","type":"address","internalType":"address"}],"stateMutability":"view"},{"type":"function","name":"renounceOwnership","inputs":[],"outputs":[],"stateMutability":"nonpayable"},{"type":"function","name":"reserveA","inputs":[],"outputs":[{"name":"","type":"uint256","internalType":"uint256"}],"stateMutability":"view"},{"type":"function","name":"reserveB","inputs":[],"outputs":[{"name":"","type":"uint256","internalType":"uint256"}],"stateMutability":"view"},{"type":"function","name":"swapAtoB","inputs":[{"name":"amountA","type":"uint256","internalType":"uint256"}],"outputs":[],"stateMutability":"nonpayable"},{"type":"function","name":"swapBtoA","inputs":[{"name":"amountB","type":"uint256","internalType":"uint256"}],"outputs":[],"stateMutability":"nonpayable"},{"type":"function","name":"symbol","inputs":[],"outputs":[{"name":"","type":"string","internalType":"string"}],"stateMutability":"view"},{"type":"function","name":"tokenA","inputs":[],"outputs":[{"name":"","type":"address","internalType":"contract IERC20"}],"stateMutability":"view"},{"type":"function","name":"tokenB","inputs":[],"outputs":[{"name":"","type":"address","internalType":"contract IERC20"}],"stateMutability":"view"},{"type":"function","name":"totalFeesA","inputs":[],"outputs":[{"name":"","type":"uint256","internalType":"uint256"}],"stateMutability":"view"},{"type":"function","name":"totalFeesB","inputs":[],"outputs":[{"name":"","type":"uint256","internalType":"uint256"}],"stateMutability":"view"},{"type":"function","name":"totalSupply","inputs":[],"outputs":[{"name":"","type":"uint256","internalType":"uint256"}],"stateMutability":"view"},{"type":"function","name":"transfer","inputs":[{"name":"to","type":"address","internalType":"address"},{"name":"value","type":"uint256","internalType":"uint256"}],"outputs":[{"name":"","type":"bool","internalType":"bool"}],"stateMutability":"nonpayable"},{"type":"function","name":"transferFrom","inputs":[{"name":"from","type":"address","internalType":"address"},{"name":"to","type":"address","internalType":"address"},{"name":"value","type":"uint256","internalType":"uint256"}],"outputs":[{"name":"","type":"bool","internalType":"bool"}],"stateMutability":"nonpayable"},{"type":"function","name":"transferOwnership","inputs":[{"name":"newOwner","type":"address","internalType":"address"}],"outputs":[],"stateMutability":"nonpayable"},{"type":"function","name":"userRewardsA","inputs":[{"name":"","type":"address","internalType":"address"}],"outputs":[{"name":"","type":"uint256","internalType":"uint256"}],"stateMutability":"view"},{"type":"function","name":"userRewardsB","inputs":[{"name":"","type":"address","internalType":"address"}],"outputs":[{"name":"","type":"uint256","internalType":"uint256"}],"stateMutability":"view"},{"type":"event","name":"Approval","inputs":[{"name":"owner","type":"address","indexed":true,"internalType":"address"},{"name":"spender","type":"address","indexed":true,"internalType":"address"},{"name":"value","type":"uint256","indexed":false,"internalType":"uint256"}],"anonymous":false},{"type":"event","name":"LiquidityAdded","inputs":[{"name":"provider","type":"address","indexed":true,"internalType":"address"},{"name":"amountA","type":"uint256","indexed":false,"internalType":"uint256"},{"name":"amountB","type":"uint256","indexed":false,"internalType":"uint256"},{"name":"lpTokensMinted","type":"uint256","indexed":false,"internalType":"uint256"}],"anonymous":false},{"type":"event","name":"OwnershipTransferred","inputs":[{"name":"previousOwner","type":"address","indexed":true,"internalType":"address"},{"name":"newOwner","type":"address","indexed":true,"internalType":"address"}],"anonymous":false},{"type":"event","name":"Swapped","inputs":[{"name":"user","type":"address","indexed":true,"internalType":"address"},{"name":"amountA","type":"uint256","indexed":false,"internalType":"uint256"},{"name":"amountB","type":"uint256","indexed":false,"internalType":"uint256"}],"anonymous":false},{"type":"event","name":"Transfer","inputs":[{"name":"from","type":"address","indexed":true,"internalType":"address"},{"name":"to","type":"address","indexed":true,"internalType":"address"},{"name":"value","type":"uint256","indexed":false,"internalType":"uint256"}],"anonymous":false},{"type":"event","name":"YieldClaimed","inputs":[{"name":"provider","type":"address","indexed":true,"internalType":"address"},{"name":"amountA","type":"uint256","indexed":false,"internalType":"uint256"},{"name":"amountB","type":"uint256","indexed":false,"internalType":"uint256"}],"anonymous":false},{"type":"error","name":"ERC20InsufficientAllowance","inputs":[{"name":"spender","type":"address","internalType":"address"},{"name":"allowance","type":"uint256","internalType":"uint256"},{"name":"needed","type":"uint256","internalType":"uint256"}]},{"type":"error","name":"ERC20InsufficientBalance","inputs":[{"name":"sender","type":"address","internalType":"address"},{"name":"balance","type":"uint256","internalType":"uint256"},{"name":"needed","type":"uint256","internalType":"uint256"}]},{"type":"error","name":"ERC20InvalidApprover","inputs":[{"name":"approver","type":"address","internalType":"address"}]},{"type":"error","name":"ERC20InvalidReceiver","inputs":[{"name":"receiver","type":"address","internalType":"address"}]},{"type":"error","name":"ERC20InvalidSender","inputs":[{"name":"sender","type":"address","internalType":"address"}]},{"type":"error","name":"ERC20InvalidSpender","inputs":[{"name":"spender","type":"address","internalType":"address"}]},{"type":"error","name":"OwnableInvalidOwner","inputs":[{"name":"owner","type":"address","internalType":"address"}]},{"type":"error","name":"OwnableUnauthorizedAccount","inputs":[{"name":"account","type":"address","internalType":"address"}]}],"bytecode":{"object":"0x608060405234801561000f575f5ffd5b5060405161176238038061176283398101604081905261002e91610152565b60408051808201825260088152672628102a37b5b2b760c11b6020808301919091528251808401909352600383526213141560ea1b9083015290338061008d57604051631e4fbdf760e01b81525f600482015260240160405180910390fd5b610096816100e8565b5060046100a3838261021b565b5060056100b0828261021b565b5050600680546001600160a01b039485166001600160a01b0319918216179091556007805493909416921691909117909155506102d5565b5f80546001600160a01b038381166001600160a01b0319831681178455604051919092169283917f8be0079c531659141344cd1fd0a4f28419497f9722a3daafe3b4186f6b6457e09190a35050565b80516001600160a01b038116811461014d575f5ffd5b919050565b5f5f60408385031215610163575f5ffd5b61016c83610137565b915061017a60208401610137565b90509250929050565b634e487b7160e01b5f52604160045260245ffd5b600181811c908216806101ab57607f821691505b6020821081036101c957634e487b7160e01b5f52602260045260245ffd5b50919050565b601f82111561021657805f5260205f20601f840160051c810160208510156101f45750805b601f840160051c820191505b81811015610213575f8155600101610200565b50505b505050565b81516001600160401b0381111561023457610234610183565b610248816102428454610197565b846101cf565b6020601f82116001811461027a575f83156102635750848201515b5f19600385901b1c1916600184901b178455610213565b5f84815260208120601f198516915b828110156102a95787850151825560209485019460019092019101610289565b50848210156102c657868401515f19600387901b60f8161c191681555b50505050600190811b01905550565b611480806102e25f395ff3fe608060405234801561000f575f5ffd5b5060043610610187575f3560e01c806377d172b7116100d9578063a9059cbb11610093578063dd62ed3e1161006e578063dd62ed3e1461033e578063e0441df014610376578063eaf98d2314610389578063f2fde38b14610391575f5ffd5b8063a9059cbb1461030f578063da0d673514610322578063dc5fa6c514610335575f5ffd5b806377d172b71461029d5780638c9d4f77146102a65780638d519a49146102c55780638da5cb5b146102e457806395d89b41146102f45780639cd441da146102fc575f5ffd5b806323b872dd116101445780635f64b55b1161011f5780635f64b55b146102515780636a1073551461026457806370a082311461026d578063715018a614610295575f5ffd5b806323b872dd14610225578063313ce56714610238578063406cf22914610247575f5ffd5b8063054d50d41461018b57806306fdde03146101b1578063095ea7b3146101c65780630fc63d10146101e957806318160ddd1461021457806319e36f3b1461021c575b5f5ffd5b61019e6101993660046111c5565b6103a4565b6040519081526020015b60405180910390f35b6101b9610418565b6040516101a891906111ee565b6101d96101d436600461123e565b6104a8565b60405190151581526020016101a8565b6006546101fc906001600160a01b031681565b6040516001600160a01b0390911681526020016101a8565b60035461019e565b61019e60095481565b6101d9610233366004611266565b6104c1565b604051601281526020016101a8565b61024f6104e4565b005b6007546101fc906001600160a01b031681565b61019e600b5481565b61019e61027b3660046112a0565b6001600160a01b03165f9081526001602052604090205490565b61024f6106d9565b61019e600a5481565b61019e6102b43660046112a0565b600d6020525f908152604090205481565b61019e6102d33660046112a0565b600c6020525f908152604090205481565b5f546001600160a01b03166101fc565b6101b96106ec565b61024f61030a3660046112c0565b6106fb565b6101d961031d36600461123e565b61096a565b61024f6103303660046112e0565b610977565b61019e60085481565b61019e61034c3660046112f7565b6001600160a01b039182165f90815260026020908152604080832093909416825291909152205490565b61024f6103843660046112e0565b610bd8565b61019e601e81565b61024f61039f3660046112a0565b610df3565b5f5f84116103cd5760405162461bcd60e51b81526004016103c490611328565b60405180910390fd5b5f6103da856103e5611373565b90505f6103e78483611373565b90505f826103f7876103e8611373565b610401919061138a565b905061040d818361139d565b979650505050505050565b606060048054610427906113bc565b80601f0160208091040260200160405190810160405280929190818152602001828054610453906113bc565b801561049e5780601f106104755761010080835404028352916020019161049e565b820191905f5260205f20905b81548152906001019060200180831161048157829003601f168201915b5050505050905090565b5f336104b5818585610e30565b60019150505b92915050565b5f336104ce858285610e42565b6104d9858585610ebd565b506001949350505050565b335f908152600c6020908152604080832054600d909252909120548115158061050c57505f81115b61054e5760405162461bcd60e51b81526020600482015260136024820152724e6f207265776172647320746f20636c61696d60681b60448201526064016103c4565b335f908152600c60209081526040808320839055600d9091528120558115610602576006546001600160a01b031663a9059cbb3361059485670de0b6b3a7640000611373565b6040516001600160e01b031960e085901b1681526001600160a01b03909216600483015260248201526044016020604051808303815f875af11580156105dc573d5f5f3e3d5ffd5b505050506040513d601f19601f8201168201806040525081019061060091906113f4565b505b801561069a576007546001600160a01b031663a9059cbb3361062c84670de0b6b3a7640000611373565b6040516001600160e01b031960e085901b1681526001600160a01b03909216600483015260248201526044016020604051808303815f875af1158015610674573d5f5f3e3d5ffd5b505050506040513d601f19601f8201168201806040525081019061069891906113f4565b505b604080518381526020810183905233917f10d8dedfc0745b8c25ba10b06e304138b251c18dcaadf2d71c7f3214719dc4d1910160405180910390a25050565b6106e1610f1a565b6106ea5f610f46565b565b606060058054610427906113bc565b5f8211801561070957505f81115b6107555760405162461bcd60e51b815260206004820152601e60248201527f416d6f756e7473206d7573742062652067726561746572207468616e2030000060448201526064016103c4565b6006546001600160a01b03166323b872dd333061077a86670de0b6b3a7640000611373565b6040518463ffffffff1660e01b815260040161079893929190611413565b6020604051808303815f875af11580156107b4573d5f5f3e3d5ffd5b505050506040513d601f19601f820116820180604052508101906107d891906113f4565b506007546001600160a01b03166323b872dd33306107fe85670de0b6b3a7640000611373565b6040518463ffffffff1660e01b815260040161081c93929190611413565b6020604051808303815f875af1158015610838573d5f5f3e3d5ffd5b505050506040513d601f19601f8201168201806040525081019061085c91906113f4565b505f61086760035490565b5f0361087e57610877828461138a565b90506108d8565b5f60085461088b60035490565b6108959086611373565b61089f919061139d565b90505f6009546108ae60035490565b6108b89086611373565b6108c2919061139d565b90508082106108d157806108d3565b815b925050505b8260085f8282546108e9919061138a565b925050819055508160095f828254610901919061138a565b9091555061092290503361091d83670de0b6b3a7640000611373565b610f95565b604080518481526020810184905290810182905233907f64b83944e79c3ce8d4c297411de637c3e102d064677aac0c163976ebdcd6f50e9060600160405180910390a2505050565b5f336104b5818585610ebd565b5f81116109965760405162461bcd60e51b81526004016103c490611328565b5f6109a6826008546009546103a4565b90506009548111156109f35760405162461bcd60e51b8152602060048201526016602482015275496e73756666696369656e74206c697175696469747960501b60448201526064016103c4565b5f612710610a02601e85611373565b610a0c919061139d565b90505f610a198285611437565b905081600a5f828254610a2c919061138a565b9091555050335f908152600c602052604081208054849290610a4f90849061138a565b90915550506006546001600160a01b03166323b872dd3330610a7988670de0b6b3a7640000611373565b6040518463ffffffff1660e01b8152600401610a9793929190611413565b6020604051808303815f875af1158015610ab3573d5f5f3e3d5ffd5b505050506040513d601f19601f82011682018060405250810190610ad791906113f4565b506007546001600160a01b031663a9059cbb33610afc86670de0b6b3a7640000611373565b6040516001600160e01b031960e085901b1681526001600160a01b03909216600483015260248201526044016020604051808303815f875af1158015610b44573d5f5f3e3d5ffd5b505050506040513d601f19601f82011682018060405250810190610b6891906113f4565b508060085f828254610b7a919061138a565b925050819055508260095f828254610b929190611437565b9091555050604080518581526020810185905233917f3a9a9f34f5831e9c8ecb66ab3aa308b2ff31eaca434615f6c9cadc656a9af71c910160405180910390a250505050565b5f8111610bf75760405162461bcd60e51b81526004016103c490611328565b5f610c07826009546008546103a4565b9050600854811115610c545760405162461bcd60e51b8152602060048201526016602482015275496e73756666696369656e74206c697175696469747960501b60448201526064016103c4565b5f612710610c63601e85611373565b610c6d919061139d565b90505f610c7a8285611437565b905081600b5f828254610c8d919061138a565b9091555050335f908152600d602052604081208054849290610cb090849061138a565b90915550506007546001600160a01b03166323b872dd3330610cda88670de0b6b3a7640000611373565b6040518463ffffffff1660e01b8152600401610cf893929190611413565b6020604051808303815f875af1158015610d14573d5f5f3e3d5ffd5b505050506040513d601f19601f82011682018060405250810190610d3891906113f4565b506006546001600160a01b031663a9059cbb33610d5d86670de0b6b3a7640000611373565b6040516001600160e01b031960e085901b1681526001600160a01b03909216600483015260248201526044016020604051808303815f875af1158015610da5573d5f5f3e3d5ffd5b505050506040513d601f19601f82011682018060405250810190610dc991906113f4565b508060095f828254610ddb919061138a565b925050819055508260085f828254610b929190611437565b610dfb610f1a565b6001600160a01b038116610e2457604051631e4fbdf760e01b81525f60048201526024016103c4565b610e2d81610f46565b50565b610e3d8383836001610fcd565b505050565b6001600160a01b038381165f908152600260209081526040808320938616835292905220545f198114610eb75781811015610ea957604051637dc7a0d960e11b81526001600160a01b038416600482015260248101829052604481018390526064016103c4565b610eb784848484035f610fcd565b50505050565b6001600160a01b038316610ee657604051634b637e8f60e11b81525f60048201526024016103c4565b6001600160a01b038216610f0f5760405163ec442f0560e01b81525f60048201526024016103c4565b610e3d83838361109f565b5f546001600160a01b031633146106ea5760405163118cdaa760e01b81523360048201526024016103c4565b5f80546001600160a01b038381166001600160a01b0319831681178455604051919092169283917f8be0079c531659141344cd1fd0a4f28419497f9722a3daafe3b4186f6b6457e09190a35050565b6001600160a01b038216610fbe5760405163ec442f0560e01b81525f60048201526024016103c4565b610fc95f838361109f565b5050565b6001600160a01b038416610ff65760405163e602df0560e01b81525f60048201526024016103c4565b6001600160a01b03831661101f57604051634a1406b160e11b81525f60048201526024016103c4565b6001600160a01b038085165f9081526002602090815260408083209387168352929052208290558015610eb757826001600160a01b0316846001600160a01b03167f8c5be1e5ebec7d5bd14f71427d1e84f3dd0314c0f7b2291e5b200ac8c7c3b9258460405161109191815260200190565b60405180910390a350505050565b6001600160a01b0383166110c9578060035f8282546110be919061138a565b909155506111399050565b6001600160a01b0383165f908152600160205260409020548181101561111b5760405163391434e360e21b81526001600160a01b038516600482015260248101829052604481018390526064016103c4565b6001600160a01b0384165f9081526001602052604090209082900390555b6001600160a01b03821661115557600380548290039055611173565b6001600160a01b0382165f9081526001602052604090208054820190555b816001600160a01b0316836001600160a01b03167fddf252ad1be2c89b69c2b068fc378daa952ba7f163c4a11628f55a4df523b3ef836040516111b891815260200190565b60405180910390a3505050565b5f5f5f606084860312156111d7575f5ffd5b505081359360208301359350604090920135919050565b602081525f82518060208401528060208501604085015e5f604082850101526040601f19601f83011684010191505092915050565b80356001600160a01b0381168114611239575f5ffd5b919050565b5f5f6040838503121561124f575f5ffd5b61125883611223565b946020939093013593505050565b5f5f5f60608486031215611278575f5ffd5b61128184611223565b925061128f60208501611223565b929592945050506040919091013590565b5f602082840312156112b0575f5ffd5b6112b982611223565b9392505050565b5f5f604083850312156112d1575f5ffd5b50508035926020909101359150565b5f602082840312156112f0575f5ffd5b5035919050565b5f5f60408385031215611308575f5ffd5b61131183611223565b915061131f60208401611223565b90509250929050565b6020808252601d908201527f416d6f756e74206d7573742062652067726561746572207468616e2030000000604082015260600190565b634e487b7160e01b5f52601160045260245ffd5b80820281158282048414176104bb576104bb61135f565b808201808211156104bb576104bb61135f565b5f826113b757634e487b7160e01b5f52601260045260245ffd5b500490565b600181811c908216806113d057607f821691505b6020821081036113ee57634e487b7160e01b5f52602260045260245ffd5b50919050565b5f60208284031215611404575f5ffd5b815180151581146112b9575f5ffd5b6001600160a01b039384168152919092166020820152604081019190915260600190565b818103818111156104bb576104bb61135f56fea2646970667358221220aad6f468508f2db021664f131f51139011aab8217783b5ae35b3e66fd3242bcb64736f6c634300081c0033","linkReferences":{}},"methodIdentifiers":{"FEE_PERCENT()":"eaf98d23","addLiquidity(uint256,uint256)":"9cd441da","allowance(address,address)":"dd62ed3e","approve(address,uint256)":"095ea7b3","balanceOf(address)":"70a08231","claimYield()":"406cf229","decimals()":"313ce567","getAmountOut(uint256,uint256,uint256)":"054d50d4","name()":"06fdde03","owner()":"8da5cb5b","renounceOwnership()":"715018a6","reserveA()":"dc5fa6c5","reserveB()":"19e36f3b","swapAtoB(uint256)":"da0d6735","swapBtoA(uint256)":"e0441df0","symbol()":"95d89b41","tokenA()":"0fc63d10","tokenB()":"5f64b55b","totalFeesA()":"77d172b7","totalFeesB()":"6a107355","totalSupply()":"18160ddd","transfer(address,uint256)":"a9059cbb","transferFrom(address,address,uint256)":"23b872dd","transferOwnership(address)":"f2fde38b","userRewardsA(address)":"8d519a49","userRewardsB(address)":"8c9d4f77"},"id":29}