{"abi":[{"type":"constructor","inputs":[{"name":"_lpToken","type":"address","internalType":"address"},{"name":"_depositToken","type":"address","internalType":"address"}],"stateMutability":"nonpayable"},{"type":"function","name":"annualInterestRate","inputs":[],"outputs":[{"name":"","type":"uint256","internalType":"uint256"}],"stateMutability":"view"},{"type":"function","name":"borrow","inputs":[{"name":"amount","type":"uint256","internalType":"uint256"}],"outputs":[],"stateMutability":"nonpayable"},{"type":"function","name":"calculateInterest","inputs":[{"name":"borrowedAmount","type":"uint256","internalType":"uint256"},{"name":"borrowTimestamp","type":"uint256","internalType":"uint256"}],"outputs":[{"name":"","type":"uint256","internalType":"uint256"}],"stateMutability":"view"},{"type":"function","name":"collateralizationRatio","inputs":[],"outputs":[{"name":"","type":"uint256","internalType":"uint256"}],"stateMutability":"view"},{"type":"function","name":"deposit","inputs":[{"name":"amount","type":"uint256","internalType":"uint256"}],"outputs":[],"stateMutability":"nonpayable"},{"type":"function","name":"depositCollateral","inputs":[{"name":"amount","type":"uint256","internalType":"uint256"}],"outputs":[],"stateMutability":"nonpayable"},{"type":"function","name":"depositToken","inputs":[],"outputs":[{"name":"","type":"address","internalType":"contract IERC20"}],"stateMutability":"view"},{"type":"function","name":"lenderDeposits","inputs":[{"name":"","type":"address","internalType":"address"}],"outputs":[{"name":"amount","type":"uint256","internalType":"uint256"},{"name":"depositTimestamp","type":"uint256","internalType":"uint256"}],"stateMutability":"view"},{"type":"function","name":"liquidate","inputs":[{"name":"user","type":"address","internalType":"address"}],"outputs":[],"stateMutability":"nonpayable"},{"type":"function","name":"liquidationThreshold","inputs":[],"outputs":[{"name":"","type":"uint256","internalType":"uint256"}],"stateMutability":"view"},{"type":"function","name":"loans","inputs":[{"name":"","type":"address","internalType":"address"}],"outputs":[{"name":"collateralAmount","type":"uint256","internalType":"uint256"},{"name":"borrowedAmount","type":"uint256","internalType":"uint256"},{"name":"borrowTimestamp","type":"uint256","internalType":"uint256"}],"stateMutability":"view"},{"type":"function","name":"lockPeriod","inputs":[],"outputs":[{"name":"","type":"uint256","internalType":"uint256"}],"stateMutability":"view"},{"type":"function","name":"lpToken","inputs":[],"outputs":[{"name":"","type":"address","internalType":"contract IERC20"}],"stateMutability":"view"},{"type":"function","name":"owner","inputs":[],"outputs":[{"name":"","type":"address","internalType":"address"}],"stateMutability":"view"},{"type":"function","name":"renounceOwnership","inputs":[],"outputs":[],"stateMutability":"nonpayable"},{"type":"function","name":"repay","inputs":[{"name":"amount","type":"uint256","internalType":"uint256"}],"outputs":[],"stateMutability":"nonpayable"},{"type":"function","name":"totalDeposits","inputs":[],"outputs":[{"name":"","type":"uint256","internalType":"uint256"}],"stateMutability":"view"},{"type":"function","name":"transferOwnership","inputs":[{"name":"newOwner","type":"address","internalType":"address"}],"outputs":[],"stateMutability":"nonpayable"},{"type":"function","name":"withdraw","inputs":[{"name":"amount","type":"uint256","internalType":"uint256"}],"outputs":[],"stateMutability":"nonpayable"},{"type":"event","name":"CollateralDeposited","inputs":[{"name":"user","type":"address","indexed":true,"internalType":"address"},{"name":"amount","type":"uint256","indexed":false,"internalType":"uint256"}],"anonymous":false},{"type":"event","name":"DepositMade","inputs":[{"name":"lender","type":"address","indexed":true,"internalType":"address"},{"name":"amount","type":"uint256","indexed":false,"internalType":"uint256"},{"name":"timestamp","type":"uint256","indexed":false,"internalType":"uint256"}],"anonymous":false},{"type":"event","name":"LoanLiquidated","inputs":[{"name":"user","type":"address","indexed":true,"internalType":"address"},{"name":"collateralAmount","type":"uint256","indexed":false,"internalType":"uint256"}],"anonymous":false},{"type":"event","name":"LoanRepaid","inputs":[{"name":"user","type":"address","indexed":true,"internalType":"address"},{"name":"amount","type":"uint256","indexed":false,"internalType":"uint256"},{"name":"interestPaid","type":"uint256","indexed":false,"internalType":"uint256"}],"anonymous":false},{"type":"event","name":"OwnershipTransferred","inputs":[{"name":"previousOwner","type":"address","indexed":true,"internalType":"address"},{"name":"newOwner","type":"address","indexed":true,"internalType":"address"}],"anonymous":false},{"type":"event","name":"TokensBorrowed","inputs":[{"name":"user","type":"address","indexed":true,"internalType":"address"},{"name":"amount","type":"uint256","indexed":false,"internalType":"uint256"}],"anonymous":false},{"type":"event","name":"WithdrawalMade","inputs":[{"name":"lender","type":"address","indexed":true,"internalType":"address"},{"name":"amount","type":"uint256","indexed":false,"internalType":"uint256"}],"anonymous":false},{"type":"error","name":"OwnableInvalidOwner","inputs":[{"name":"owner","type":"address","internalType":"address"}]},{"type":"error","name":"OwnableUnauthorizedAccount","inputs":[{"name":"account","type":"address","internalType":"address"}]}],"bytecode":{"object":"0x60806040526050600355600a600455605a60055562278d00600655348015610025575f5ffd5b506040516110013803806110018339810160408190526100449161010e565b338061006957604051631e4fbdf760e01b81525f600482015260240160405180910390fd5b610072816100a4565b50600180546001600160a01b039384166001600160a01b0319918216179091556002805492909316911617905561013f565b5f80546001600160a01b038381166001600160a01b0319831681178455604051919092169283917f8be0079c531659141344cd1fd0a4f28419497f9722a3daafe3b4186f6b6457e09190a35050565b80516001600160a01b0381168114610109575f5ffd5b919050565b5f5f6040838503121561011f575f5ffd5b610128836100f3565b9150610136602084016100f3565b90509250929050565b610eb58061014c5f395ff3fe608060405234801561000f575f5ffd5b506004361061011c575f3560e01c80637d882097116100a9578063c5ebeaec1161006e578063c5ebeaec1461027f578063c89039c514610292578063dcaf9c44146102a5578063efdd7c07146102ae578063f2fde38b146102c1575f5ffd5b80637d882097146102055780638da5cb5b1461020e578063993983581461021e578063b6b55f2514610259578063bad4a01f1461026c575f5ffd5b80633fd8b02f116100ef5780633fd8b02f146101775780634031234c146101805780635fcbd28514610189578063715018a6146101b457806373b4086b146101bc575f5ffd5b80631a9703da146101205780632e1a7d4d1461013c5780632f86556814610151578063371fd8e614610164575b5f5ffd5b61012960045481565b6040519081526020015b60405180910390f35b61014f61014a366004610d8c565b6102d4565b005b61014f61015f366004610da3565b61045f565b61014f610172366004610d8c565b610637565b61012960065481565b61012960055481565b60015461019c906001600160a01b031681565b6040516001600160a01b039091168152602001610133565b61014f6107f1565b6101ea6101ca366004610da3565b60086020525f908152604090208054600182015460029092015490919083565b60408051938452602084019290925290820152606001610133565b61012960075481565b5f546001600160a01b031661019c565b61024461022c366004610da3565b60096020525f90815260409020805460019091015482565b60408051928352602083019190915201610133565b61014f610267366004610d8c565b610804565b61014f61027a366004610d8c565b610959565b61014f61028d366004610d8c565b610a76565b60025461019c906001600160a01b031681565b61012960035481565b6101296102bc366004610dd0565b610c85565b61014f6102cf366004610da3565b610cd4565b335f908152600960205260409020805482111561032f5760405162461bcd60e51b8152602060048201526014602482015273496e73756666696369656e742062616c616e636560601b60448201526064015b60405180910390fd5b60065481600101546103419190610e04565b4210156103845760405162461bcd60e51b8152602060048201526011602482015270151bdad95b9cc8185c99481b1bd8dad959607a1b6044820152606401610326565b81815f015f8282546103969190610e17565b925050819055508160075f8282546103ae9190610e17565b909155505060025460405163a9059cbb60e01b8152336004820152602481018490526001600160a01b039091169063a9059cbb906044016020604051808303815f875af1158015610401573d5f5f3e3d5ffd5b505050506040513d601f19601f820116820180604052508101906104259190610e2a565b5060405182815233907fbc158bb64f05d6383aea69bbb0b20c1bbf4b7a18f63359c5649b7c39e29d38849060200160405180910390a25050565b6001600160a01b0381165f90815260086020526040902060018101546104b85760405162461bcd60e51b815260206004820152600e60248201526d27379030b1ba34bb32903637b0b760911b6044820152606401610326565b5f6104cb82600101548360020154610c85565b90505f8183600101546104de9190610e04565b83549091505f906104f790670de0b6b3a7640000610e49565b90505f60646005548361050a9190610e49565b6105149190610e60565b9050808310156105705760405162461bcd60e51b815260206004820152602160248201527f4c6f616e206e6f7420656c696769626c6520666f72206c69717569646174696f6044820152603760f91b6064820152608401610326565b600154855460405163a9059cbb60e01b815233600482015260248101919091526001600160a01b039091169063a9059cbb906044016020604051808303815f875af11580156105c1573d5f5f3e3d5ffd5b505050506040513d601f19601f820116820180604052508101906105e59190610e2a565b505f808655600186018190556040519081526001600160a01b038716907fd75168f1c9346a6c18eaeba0d3c95ea70b5dc2c0c280274a670c97cb8e4f415b9060200160405180910390a2505050505050565b335f90815260086020526040902060018101546106875760405162461bcd60e51b815260206004820152600e60248201526d27379030b1ba34bb32903637b0b760911b6044820152606401610326565b5f61069a82600101548360020154610c85565b90508082600101546106ac9190610e04565b8310156106fb5760405162461bcd60e51b815260206004820152601c60248201527f496e73756666696369656e7420616d6f756e7420746f207265706179000000006044820152606401610326565b6002546040516323b872dd60e01b8152336004820152306024820152604481018590526001600160a01b03909116906323b872dd906064016020604051808303815f875af115801561074f573d5f5f3e3d5ffd5b505050506040513d601f19601f820116820180604052508101906107739190610e2a565b50816001015460075f8282546107899190610e04565b909155505060018201545f9061079f9085610e17565b5f600185018190556002850155604080518681526020810183905291925033917fc7ce0a35f17b490de2a317e7fecb2cae86b1abffb03800b2f49282352138269891015b60405180910390a250505050565b6107f9610d11565b6108025f610d3d565b565b5f81116108535760405162461bcd60e51b815260206004820152601d60248201527f416d6f756e74206d7573742062652067726561746572207468616e20300000006044820152606401610326565b6002546040516323b872dd60e01b8152336004820152306024820152604481018390526001600160a01b03909116906323b872dd906064016020604051808303815f875af11580156108a7573d5f5f3e3d5ffd5b505050506040513d601f19601f820116820180604052508101906108cb9190610e2a565b50335f90815260096020526040812080548392906108ea908490610e04565b9091555050335f9081526009602052604081204260019091015560078054839290610916908490610e04565b90915550506040805182815242602082015233917f0b05f0d1cd0819f155b8a61f60baf7767c1ee49d04aeaab701df236140eb93f991015b60405180910390a250565b5f81116109a85760405162461bcd60e51b815260206004820152601d60248201527f416d6f756e74206d7573742062652067726561746572207468616e20300000006044820152606401610326565b6001546040516323b872dd60e01b8152336004820152306024820152604481018390526001600160a01b03909116906323b872dd906064016020604051808303815f875af11580156109fc573d5f5f3e3d5ffd5b505050506040513d601f19601f82011682018060405250810190610a209190610e2a565b50335f9081526008602052604081208054839290610a3f908490610e04565b909155505060405181815233907fd7243f6f8212d5188fd054141cf6ea89cfc0d91facb8c3afe2f88a13584801429060200161094e565b335f9081526008602052604090208054610ad25760405162461bcd60e51b815260206004820152601760248201527f4e6f20636f6c6c61746572616c206465706f73697465640000000000000000006044820152606401610326565b80545f90610ae890670de0b6b3a7640000610e49565b90505f606460035483610afb9190610e49565b610b059190610e60565b905080841115610b575760405162461bcd60e51b815260206004820152601760248201527f4578636565647320626f72726f77696e67206c696d69740000000000000000006044820152606401610326565b600754841115610ba95760405162461bcd60e51b815260206004820152601b60248201527f496e73756666696369656e7420706f6f6c206c697175696469747900000000006044820152606401610326565b60025460405163a9059cbb60e01b8152336004820152602481018690526001600160a01b039091169063a9059cbb906044016020604051808303815f875af1158015610bf7573d5f5f3e3d5ffd5b505050506040513d601f19601f82011682018060405250810190610c1b9190610e2a565b5083836001015f828254610c2f9190610e04565b9091555050426002840155600780548591905f90610c4e908490610e17565b909155505060405184815233907f8412c29da21aa433ef5a58b426e1a0a97689471947dd559e72c5a8953bd5e9f5906020016107e3565b5f80610c918342610e17565b90505f606460045486610ca49190610e49565b610cae9190610e60565b90506301e13380610cbf8383610e49565b610cc99190610e60565b925050505b92915050565b610cdc610d11565b6001600160a01b038116610d0557604051631e4fbdf760e01b81525f6004820152602401610326565b610d0e81610d3d565b50565b5f546001600160a01b031633146108025760405163118cdaa760e01b8152336004820152602401610326565b5f80546001600160a01b038381166001600160a01b0319831681178455604051919092169283917f8be0079c531659141344cd1fd0a4f28419497f9722a3daafe3b4186f6b6457e09190a35050565b5f60208284031215610d9c575f5ffd5b5035919050565b5f60208284031215610db3575f5ffd5b81356001600160a01b0381168114610dc9575f5ffd5b9392505050565b5f5f60408385031215610de1575f5ffd5b50508035926020909101359150565b634e487b7160e01b5f52601160045260245ffd5b80820180821115610cce57610cce610df0565b81810381811115610cce57610cce610df0565b5f60208284031215610e3a575f5ffd5b81518015158114610dc9575f5ffd5b8082028115828204841417610cce57610cce610df0565b5f82610e7a57634e487b7160e01b5f52601260045260245ffd5b50049056fea2646970667358221220af75296b761e2ac796b683da8e376ae965cef6f5bbb57d6c3a0d9127d9d090ad64736f6c634300081c0033","linkReferences":{}},"methodIdentifiers":{"annualInterestRate()":"1a9703da","borrow(uint256)":"c5ebeaec","calculateInterest(uint256,uint256)":"efdd7c07","collateralizationRatio()":"dcaf9c44","deposit(uint256)":"b6b55f25","depositCollateral(uint256)":"bad4a01f","depositToken()":"c89039c5","lenderDeposits(address)":"99398358","liquidate(address)":"2f865568","liquidationThreshold()":"4031234c","loans(address)":"73b4086b","lockPeriod()":"3fd8b02f","lpToken()":"5fcbd285","owner()":"8da5cb5b","renounceOwnership()":"715018a6","repay(uint256)":"371fd8e6","totalDeposits()":"7d882097","transferOwnership(address)":"f2fde38b","withdraw(uint256)":"2e1a7d4d"},"id":28}